:100000000C945C000C9479000C9479000C947900A9
:100010000C9479000C9479000C9479000C9479007C
:100020000C9479000C9479000C9479000C9479006C
:100030000C9479000C9479000C9479000C9479005C
:100040000C9479010C9479000C9479000C9479004B
:100050000C9479000C9479000C9479000C9479003C
:100060000C9479000C947900000000002400270013
:100070002A0000000000250028002B0004040404CE
:100080000404040402020202020203030303030342
:10009000010204081020408001020408102001021F
:1000A00004081020000000080002010000030407FB
:1000B000000000000000000011241FBECFEFD8E0B8
:1000C000DEBFCDBF11E0A0E0B1E0EEE7F6E002C098
:1000D00005900D92A230B107D9F721E0A2E0B1E07E
:1000E00001C01D92AB30B207E1F70E94C3010C942E
:1000F0003D030C940000EDEAF0E02491E9E9F0E022
:100100009491E5E8F0E0E491EE23C9F0222339F080
:10011000233001F1A8F4213019F1223029F1F0E067
:10012000EE0FFF1FEE58FF4FA591B4912FB7F89433
:10013000EC91811126C090959E239C932FBF08952A
:100140002730A9F02830C9F0243049F720918000E9
:100150002F7D03C0209180002F7720938000DFCF78
:1001600024B52F7724BDDBCF24B52F7DFBCF209185
:10017000B0002F772093B000D2CF2091B0002F7D18
:10018000F9CF9E2BDACFCF93DF9390E0FC01E057BD
:10019000FF4F249184589F4FFC0184918823D1F014
:1001A00090E0880F991FFC01E859FF4FA591B49189
:1001B000FC01EE58FF4FC591D49161110EC09FB75D
:1001C000F8948C91E22FE0958E238C932881E22382
:1001D000E8839FBFDF91CF9108958FB7F894EC919A
:1001E000E22BEC938FBFF6CFCF93DF93EC0161E06E
:1001F00089E00E94C300EDEAF0E0E491E33051F1C0
:1002000068F4E130D9F0E23001F180E0C038D10586
:100210000CF081E0DF91CF910C947B00E73021F16D
:10022000E83051F1E43089F780918000806280935A
:100230008000D0938B00C0938A0004C084B580688E
:1002400084BDC7BDDF91CF91089584B5806284BD20
:10025000C8BDF8CF80918000806880938000D093E3
:100260008900C0938800EECF8091B00080688093B1
:10027000B000C093B300E6CF8091B000806280935D
:10028000B000C093B400DECF3FB7F894809107016F
:1002900090910801A0910901B0910A0126B5A89B8F
:1002A00005C02F3F19F00196A11DB11D3FBFBA2F08
:1002B000A92F982F8827BC01CD01620F711D811DC8
:1002C000911D42E0660F771F881F991F4A95D1F74D
:1002D0000895833B910520F482EB90E00C94F400A8
:1002E0009C01235B31092F373240C0F382E393E056
:1002F000F5CF1F920F920FB60F9211242F933F93B9
:100300008F939F93AF93BF938091030190910401CA
:10031000A0910501B09106013091020123E0230F65
:100320002D3758F50196A11DB11D20930201809330
:10033000030190930401A0930501B09306018091FD
:10034000070190910801A0910901B0910A0101965D
:10035000A11DB11D8093070190930801A09309018D
:10036000B0930A01BF91AF919F918F913F912F91CF
:100370000F900FBE0F901F90189526E8230F02963E
:10038000A11DB11DD2CF789484B5826084BD84B59F
:10039000816084BD85B5826085BD85B5816085BD80
:1003A00080916E00816080936E0010928100809138
:1003B00081008260809381008091810081608093C0
:1003C0008100809180008160809380008091B100E5
:1003D00084608093B1008091B00081608093B00010
:1003E00080917A00846080937A0080917A008260A4
:1003F00080937A0080917A00816080937A00809166
:100400007A00806880937A001092C10083E0809324
:10041000800089E08093810081E08093000160E0AA
:1004200080E00E94C30061E089E00E94C3000E9456
:1004300044014B015C0138EEC32E33E0D32EE12C96
:10044000F12C0E944401681979098A099B09683EC8
:10045000734081059105A8F321E0C21AD108E10893
:10046000F10888EE880E83E0981EA11CB11CC1140F
:10047000D104E104F10429F7C0E0D0E0809100014B
:1004800020E4829FC001112480937C0080917A0037
:10049000806480937A0080917A0086FDFCCF809101
:1004A000780040917900542F482F82EB90E0433B35
:1004B0005105A0F1433F5105D8F49A01225B31095F
:1004C000A9EDB0E00E9423036B017C01DA012EE468
:1004D0003FEF4FEF5FEF0E943203DC01CB018C5BFB
:1004E0009745AF4FBF4F8C0D9D1DAE1DBF1D0FC05B
:1004F000433381E05807D0F49A01A4E3B0E00E94AE
:100500002303DC01CB01885E9A4FAF4FBF4F26E03B
:10051000B695A795979587952A95D1F70E94690179
:10052000209709F4ABCF0E940000A8CF433721E009
:10053000520760F49A01A1E3B0E00E942303DC01BA
:10054000CB018255974FAF4FBF4FE1CF433B81E087
:10055000580760F49A01AFE3B0E00E942303DC0186
:10056000CB018E589B40A109B109D1CF433F21E077
:10057000520760F49A01A3E4B0E00E942303DC0177
:10058000CB0186559241A109B109C1CF433382E025
:10059000580760F49A01A5E4B0E00E942303DC014F
:1005A000CB018A539641A109B109B1CF433722E06B
:1005B000520760F49A01A7E4B0E00E942303DC0133
:1005C000CB018E599A41A109B109A1CF433B82E0E9
:1005D000580760F49A01AAE4B0E00E942303DC010A
:1005E000CB01845F9142A109B10991CF433F22E041
:1005F000520760F49A01ACE4B0E00E942303DC01EE
:10060000CB0188559742A109B10981CF423383E0DC
:100610005807B0F422E333E0241B350BA2EEB2E01E
:100620000E9423036B017C019A01A2E3B3E00E94C4
:100630002303DC01CB0184549946A940B10953CF6F
:1006400082E393E06BCFA29FB001B39FC001A39F51
:10065000700D811D1124911DB29F700D811D1124FB
:10066000911D08950E942303A59F900DB49F900DA6
:0E067000A49F800D911D11240895F894FFCFD2
:02067E00010079
:00000001FF
